:100000000C944F000C946C000C946C000C946C00DD
:100010000C946C000C946C000C946C000C946C00B0
:100020000C946C000C946C000C946C000C946C00A0
:100030000C946C000C946C000C9452030C946C00A7
:100040000C946C000C946C000C941E070C946C00C7
:100050000C946C000C946C000C946C000C946C0070
:100060000C946C000C946C0053797374656D206F64
:100070006E6C696E652E0D0A000D0A2A2A2A2A2A3C
:100080002A2A2A424F4F54494E4720434F4E544943
:100090004B492A2A2A2A2A2A2A2A2A0D0A00112406
:1000A0001FBECFEFD8E0DEBFCDBF11E0A0E0B1E0D2
:1000B000E4EAF5E102C005900D92A634B107D9F744
:1000C00023E0A6E4B1E001C01D92AD3FB207E1F725
:1000D0000E94A9070C94D00A0C940000CF93DF93E0
:1000E000EC0188819981009701F18236910509F030
:1000F00046C0683891F58091460190914701892B5F
:10010000A1F188EF91E00E945D02809146019091FB
:100110004701019790934701809346018091A00287
:100120009091A1020E94F00712C00E944C0240E38D
:1001300051E069EE70E088EF91E00E9450024BE3DD
:1001400051E069EE70E080E591E00E94500260E8C5
:1001500070E088E491E00E94CF0182E690E099830C
:10016000888381E0DF91CF91089580E591E00E943E
:100170005D0280914601909147010196CBCF198293
:10018000188283E0EFCFEF92FF920F931F93CF93EC
:10019000DF937C01EB018C01060F171F1093A10266
:1001A0000093A0020E946F02209741F0BE016150AF
:1001B0007109C7010E94C3000E946F021093A1023F
:1001C0000093A002DF91CF911F910F91FF90EF90CC
:1001D0000895EC0169E070E0CE010E94C300FACFFF
:1001E0008091A4029091A502892B29F41092A30278
:1001F0001092A20208950E94AA02E091A402F09136
:10020000A5022081318142815381240F351F281B93
:10021000390B0480F581E02D309739F4820F931F5C
:100220009093A3028093A20208954081518162813C
:100230007381460F571F481B590B4217530748F746
:100240009A01E7CF88E091E00C94A905EF92FF9224
:100250000F931F93CF93DF938C01FC0180819181D9
:100260000097B1F18A35910509F06DC0E091A402C3
:10027000F091A502673851F1623871F5C091A4027E
:10028000D091A502F12CE12C209731F1CE010E94F2
:10029000A106892B09F452C0AE0168E88E819F81C6
:1002A0000E945605892B09F047C01F821E828C814F
:1002B0009D81E114F104D9F1F701958384831D82B6
:1002C0001C820E94F000DACFE32FF22F309789F4DE
:1002D0001092A5021092A4028AE590E0F8019183A1
:1002E000808381E0DF91CF911F910F91FF90EF907C
:1002F000089534812581868197818417950721F39C
:10030000F093A502E093A402A481B581109721F394
:1003100016968D919C9117978417950731F4149632
:100320008D919C9195838483EFCFFD01EDCF9093C8
:10033000A5028093A402C3CF0E9422017E010C80FB
:10034000DD81C02DA1CF1182108283E0CBCFCF936E
:10035000DF93EC010E9422012E813F819091A40243
:100360008091A502E92FF82F232B81F42091AD0273
:100370003091AE023F832E839C838D83D093A50260
:10038000C093A40208C00480F581E02D309771F37A
:10039000EC17FD07C1F7DF91CF910C94F000CF93DC
:1003A000DF93EC010E948106CE01DF91CF910C9486
:1003B000A701CF93DF93EC010E948D06CE01DF9160
:1003C000CF910C94A701CF93DF93EC010E94970685
:1003D000CE01DF91CF910C94A701FC0120813181E6
:1003E000620F731F718360830C94F00021E030E092
:1003F000FC0186819781892B11F030E020E0C90152
:100400000895FC012081318182819381820F931FA5
:100410000895FC0180819181089581E090E0209110
:10042000A4023091A502232B11F490E080E00895FE
:100430008091A4029091A502892B29F08091A202BB
:100440009091A302089590E080E00895CF93DF9308
:10045000EC01E091A402F091A502E817F90781F4FC
:100460008C819D819093A5028093A4020E94F0004C
:100470001D821C821F821E82DF91CF910895FC0194
:100480003097B1F3848195818C179D07C1F78C81DA
:100490009D8195838483EACF0C94D9030C94010445
:1004A000CF93DF93EC0106960E94DA0381E090E09F
:1004B00099838883DF91CF910895FC012081318158
:1004C0002130310559F422E030E0318320839093CC
:1004D000A7028093A60206960C94F60308950E9444
:1004E0000404E091A602F091A70281E090E09183DC
:1004F00080831092A7021092A6020C940204E0914D
:10050000A602F091A70285E090E09183808310928B
:10051000A7021092A6020C94020406960C940604FC
:1005200046E067E680E00E94490780E00E94A0075D
:100530006FE476E080E00C947707F89416BC83EFC4
:1005400087BD82E084BD94E095BD15BA80936E00AE
:10055000789408952091A9023091AA028091A9026D
:100560009091AA0282179307A9F708950F931F93FA
:100570000091EF031091F0032091F1033091F20309
:100580006091EF037091F0038091F1039091F20379
:10059000601771078207930759F71F910F9108950C
:1005A0006093EF037093F0038093F1039093F20351
:1005B0000895CF93DF93EC010E94AA02C80FD91FC0
:1005C0000E94AA028C1B9D0B97FDFACFDF91CF9161
:1005D0000895009731F0880F991F880F991F019790
:1005E000F1F7089520EA3FE0019708F40895F90132
:1005F0003197F1F7F9CFCF92DF92EF92FF92EFB7F9
:10060000F8942091A9023091AA02280F391F309343
:10061000AA022093A9022091A802820F911D409165
:10062000EB035091EC036091ED037091EE039C019C
:100630002F3F310509F0F8F4A92FBB274A0F5B1FA4
:10064000611D711D4093EB035093EC036093ED0328
:100650007093EE0340E04A9F90014B9F300D3A1B90
:100660001124820F931F8093A802EFBFFF90EF9099
:10067000DF90CF9008953A95C090EF03D090F003AB
:10068000E090F103F090F203FFEFCF1ADF0AEF0AD8
:10069000FF0AC092EF03D092F003E092F103F092D0
:1006A000F203C6CF1F920F920FB60F9211242F9311
:1006B0003F934F935F936F937F938F939F93AF93EA
:1006C000BF93EF93FF938091A9029091AA020196A4
:1006D0009093AA028093A9028091A8028F5F8093D1
:1006E000A8020E940D02892B11F00E942201FF91A5
:1006F000EF91BF91AF919F918F917F916F915F919A
:100700004F913F912F910F900FBE0F901F90189512
:10071000F8940F921F922F923F924F925F926F9296
:100720007F928F929F92AF92BF92CF92DF92EF9281
:10073000FF920F931F932F933F934F935F936F936A
:100740007F938F939F93AF93BF93CF93DF93EF9359
:10075000FF93E091AB02F091AC02E056FF4F808135
:1007600091812DB73EB7318320839EBF8DBFFF910E
:10077000EF91DF91CF91BF91AF919F918F917F9139
:100780006F915F914F913F912F911F910F91FF902A
:10079000EF90DF90CF90BF90AF909F908F907F9021
:1007A0006F905F904F903F902F901F900F90789494
:1007B00008950895FC0120E021932F5F203AE1F78E
:1007C000FC01E156FF4F2FE732E020833197308361
:1007D0003197608331977083799740833197508345
:1007E0007E9685589F4F9183808308959093AC02A5
:1007F0008093AB020E9488031092AC021092AB026D
:10080000089508950C948803089508950895FC01AF
:10081000369690E08191891303C09F5F903AD1F79B
:1008200020EA30E0A901491B5109CA0108951F932C
:10083000CF93DF93DC011296ED91FC9113973097E3
:10084000E1F0162FEC019093AE028093AD0282E0AE
:100850008E83CD0104960995082E000C990B029702
:10086000029710F0133839F4BE01CE01DF91CF9119
:100870001F910C94470481E08E83DF91CF911F91EB
:100880000895FC01268120FD0C9417040895CF9251
:10089000DF92EF92FF920F931F93CF93DF9300911C
:1008A000AF021091B002E801C817D90779F020977C
:1008B00049F4DF91CF911F910F91FF90EF90DF905E
:1008C000CF9008950990D881C02DEECF209789F35D
:1008D000C090AD02D090AE028E818823B1F07B0132
:1008E0001E820115110519F5EA81FB81309769F027
:1008F000CE15DF0551F0D093AE02C093AD0250E0AB
:1009000040E063E8CE0104960995E091AF02F091D2
:10091000B002EC17FD07C1F4888199819093B00271
:100920008093AF02D092AE02C092AD02C2CFC01788
:10093000D10729F0AE0167E8C8010E944104F8011F
:1009400000811181CECFFC01309761F380819181CC
:100950008C179D07C1F78881998191838083E2CFAD
:100960001F93CF93DF931092B602C091AF02D09144
:10097000B00211E0209721F4DF91CF911F910895EB
:100980008F81882341F01E831F8250E040E062E89F
:10099000CE010E9417040990D881C02DEBCF809121
:1009A000E10291E0980F9093E10208956091AD0209
:1009B0007091AE020C9447048AE88093E102109291
:1009C000DF021092E0021092F3031092B002109234
:1009D000AF021092AE021092AD0208958091B6025D
:1009E00081110E94B0049091E002992309F44EC055
:1009F000E091DF022E2F30E085E0E89FF001112426
:100A0000E954FD4F60816093B5024181528150935A
:100A1000B4024093B3020380F481E02D2F5F3F4F77
:100A2000277033272093DF0291509093E00280914A
:100A3000AF029091B0023097F9F0613811F481E083
:100A40008683CF010E94410421C08091B6028111AA
:100A50000E94B0044091B3025091B4026091B5027B
:100A60008091B1029091B2020E944104E091B102E2
:100A7000F091B202808191819093B2028093B10291
:100A80008091B1029091B202892BF9F69091B60251
:100A90008091E002890F9927991F08959091B602DD
:100AA0008091E002890F9927991F08959C018091F8
:100AB000E0028830D9F0E091DF02E80FE77095E0BE
:100AC000E99FF0011124E954FD4F60835283418373
:100AD000348323838F5F8093E0029091F303981710
:100AE00010F48093F30390E080E0089581E090E0BB
:100AF0000895CF93DF93C091AD02D091AE020E94D2
:100B00004104D093AE02C093AD02DF91CF9108951E
:100B1000AB013091AF022091B002E32FF22FE81722
:100B2000F907B1F0309781F4009791F0FC01308320
:100B300021839093B0028093AF0221E02683158237
:100B4000148261E80C9479050190F081E02DE7CFE3
:100B50000895009749F0FC0126812150223020F4AD
:100B600021E027832093B602089521E030E0FC01C4
:100B70008681811102C030E020E0C9010895CF9341
:100B8000DF93C0E1D1E089919991009719F4DF9149
:100B9000CF91089570E060E00E948805F4CFCF9374
:100BA000DF93EC0189919991009719F4DF91CF912E
:100BB000089570E060E00E948805F4CFCF93DF9342
:100BC000EC0189919991009719F4DF91CF910895E3
:100BD0000E94D604F6CFCF93DF93EC0188819981F0
:100BE0008836910579F08A37910509F44FC0892B31
:100BF00009F04FC00E94CF048093F4031092640365
:100C00001092630385EE93E00E94F3068F3F9807EE
:100C100031F488E690E09983888381E03DC020919B
:100C20006303309164038A30910579F02F373105E1
:100C30004CF7A9014F5F5F4F5093640340936303E8
:100C40002D513D4FF9018083DDCFC901019690936D
:100C50006403809363032D513D4FF901108243EEED
:100C600052E06091F40390E080E00E94560550E06D
:100C700040E065E88091AD029091AE020E94560579
:100C8000892B09F0BBCF8AE790E0C5CF653829F6FC
:100C9000B5CF1982188283E0DF91CF9108958D300E
:100CA00001F1682F8091E202811110C085EE93E07E
:100CB0000E94D306892B19F481E08093E20286E139
:100CC00091E00E94A90581E090E008956A30B9F7AB
:100CD00085EE93E00E94D306892B89F31092E202FD
:100CE000EECF90E080E0089540E865E673E085EEA1
:100CF00093E00E94CB0670E060E086E191E00C9406
:100D00008805CF93DF93EC017B836A830E94AA025C
:100D100099838883DF91CF910895FC01808191812F
:100D200022813381820F931F918380830895CF9313
:100D3000DF93EC010E94AA0299838883DF91CF910F
:100D40000895CF93DF93EC010E94AA022881398194
:100D5000821B930B9C012F5F3F4F81E090E04A8103
:100D60005B814217530710F090E080E0DF91CF9154
:100D70000895CF93DF93FC01C081D181828193815B
:100D8000C80FD91F0E94AA029E01281B390BC90156
:100D9000DF91CF910895FC017183608341504283BC
:100DA000138214820895FC018381228130E090E057
:100DB0004481DC01A41BB109AD0142235323241754
:100DC000350771F020813181820F931FDC016C9314
:100DD00083818F5F92818923838381E090E00895EE
:100DE00090E080E00895FC0194814281238130E00D
:100DF000692F70E0261B370BB0E024233B23232B05
:100E000051F0A081B181A60FB71F8C919F5F9423F1
:100E1000948390E008958FEF9FEF0895FC01828105
:100E200090E001960895FC0143818481481B550B95
:100E30002281822F90E08423952308951F920F92A0
:100E40000FB60F9211242F933F934F935F936F939D
:100E50007F938F939F93AF93BF93EF93FF93809173
:100E6000C600E091F503F091F603309709F009957B
:100E7000FF91EF91BF91AF919F918F917F916F9172
:100E80005F914F913F912F910F900FBE0F901F9048
:100E9000189581110DC01092C5006093C40088E9B7
:100EA0008093C1004093C2001092F6031092F503A4
:100EB0000895811106C08091C00085FFFCCF60932A
:100EC000C6000895CF93C82F8A3059F46DE0809101
:100ED000EA030E9459076C2F8091EA030E94590788
:100EE00002C08D30C1F790E080E0CF91089581116C
:100EF00004C07093F6036093F50308951F93CF9396
:100F0000DF93182FEB018991811104C0DF91CF91FC
:100F10001F9108958A3021F46DE0812F0E945907B6
:100F2000FE01319760816D3071F3812F0E94590766
:100F3000EACF9091C00095FFFCCF8093C600089542
:100F40008093EA038EE191E09093FA038093F90392
:100F500008950E9490020E949D020E94DC040E945B
:100F6000BF052D980E9474068CE291E00E94CF0587
:100F700089E790E09F938F930E94CB0788E690E0EB
:100F80009F938F930E94CB070F900F900F900F901D
:100F90000E94EE04FDCFB0E0A0E0E1EDF7E00C949C
:100FA000A70AAE01495F5F4FDA016D917D91AD01F6
:100FB00007EF13E0F80182819381DC0113962C91F5
:100FC0001397286013962C930E941B08D801129641
:100FD000ED91FC912381277F2383E4E00C94C30AE5
:100FE0000F931F93CF93DF93E091F903F091FA03EE
:100FF0002381EC0110E000E021FD08C00FEF1FEF9E
:1010000014C00995892B11F00FEF1FEF89916091A2
:10101000F9037091FA03DB011896ED91FC918111AF
:10102000F0CF8AE00995892B49F7C801DF91CF916C
:101030001F910F910895ABE0B0E0E1E2F8E00C946D
:10104000990A7C013B018A01FC0117821682838187
:1010500081FFC8C1CE0101965C01F7019381F301C4
:1010600093FD859193FF81913F01882309F453C13A
:10107000853239F493FD859193FF81913F0185324B
:1010800029F4B70190E00E940B0AE7CF912C212CA4
:10109000312CFFE1F31538F08B3211F190F48032EE
:1010A00009F1833229F137FC3CC020ED280F2A30AA
:1010B00050F536FE20C08AE0989E200D1124922E15
:1010C00006C08D3291F0803371F7689430F8F301E7
:1010D00093FD859193FF81913F018111DACF21C06A
:1010E000689431F8689432F8F2CF689433F8EFCF0F
:1010F000689434F8ECCFEAE02E9E200D1124222EC5
:10110000689435F8E4CF8E3229F436FC04C1689433
:1011100036F8DDCF8C3619F4689437F8D8CF883696
:10112000B1F2982F9F7D95549330E0F08336A1F172
:101130008337C1F1833509F063C02801F2E04F0E17
:10114000511CF801C080D180692D70E036FC02C0CE
:101150006FEF7FEFC6010E94F5094C01689437F8E4
:1011600082010AC00C5F1F4FFFE3F9838824839438
:10117000912C6501E89437F833FE2DC0522C811470
:10118000910471F5552009F468CFB70180E290E031
:101190000E940B0A5A94F6CFF801808189830E5F72
:1011A0001F4FE4CF2801F2E04F0E511CF801C08020
:1011B000D180692D70E036FC02C06FEF7FEFC60171
:1011C0000E94000A4C018201D5CFB70180E290E075
:1011D0000E940B0A2A942814190409F0B0F7CECF04
:1011E000F60137FC859137FE81916F01B70190E0E0
:1011F0000E940B0A51105A94F1E08F1A9108BFCF48
:10120000843619F0893609F077C0F80137FE6BC0D3
:1012100060817181828193810C5F1F4FF32DFF7676
:101220003F2E97FF09C090958095709561957F4FEF
:101230008F4F9F4F689437F82AE030E0A5010E9455
:101240003B0AC82ECA188C2C432C36FE0CC0E894DE
:1012500040F8C91440F434FE05C032FC03C0F32D3D
:10126000FE7E4F2E892C44FE95C0FE01EC0DF11D33
:101270008081803309F087C0242D297E422E842D61
:101280008870582E43FC95C040FE8FC09C2C821461
:1012900018F42C0C922C981844FE91C0B70180E3EE
:1012A00090E00E940B0A42FE09C088E790E041FEF0
:1012B00002C088E590E0B7010E940B0AC91408F447
:1012C0008AC0CA94D12C9FEFC91AD90ACA0CDB1C58
:1012D000F60182916F01B70190E00E940B0AAC14F5
:1012E000BD04B1F74FCF60817181072E000C880BD0
:1012F000990B0E5F1F4F92CFD32CE894D4F82AE0BD
:1013000030E0853739F1232D297FD22E8F3601F138
:1013100048F48835A9F0F701868197812B96E2E1A0
:101320000C94B50A803749F08837A9F7D4FE02C07B
:101330006894D2F820E130E00DC06894D4F8F6CF7C
:1013400034FE03C0822F8660D82E20E132E002C036
:1013500028E030E0F801D7FE0FC060817181828102
:1013600093810C5F1F4FA5010E943B0AC82ECA182B
:101370003D2CE89437F867CF6081718190E080E080
:101380000E5F1F4FF0CF42FC02C0839478CF83944E
:10139000839475CF842D867809F471CFF6CFB70189
:1013A00080E290E00E940B0A83948214C0F3512CD7
:1013B00073CF522C5818821408F46ECFF8CF842DB6
:1013C000867809F47BCF8BE241FE80E247FC8DE218
:1013D000B70190E071CFB70180E390E00E940B0A63
:1013E0009A946CCF8FEF9FEF99CFFC0105906150DD
:1013F00070400110D8F7809590958E0F9F1F08952B
:10140000FC016150704001900110D8F780959095D3
:101410008E0F9F1F08950F931F93CF93DF93182F65
:10142000092FEB018B8181FD09C01FEF0FEF812F89
:10143000902FDF91CF911F910F91089582FF14C0DB
:101440002E813F818C819D81281739073CF4E881EA
:10145000F981CF0101969983888310838E819F81C2
:1014600001969F838E83E3CFE885F985812F0995C7
:10147000892BA1F3DACFFA01AA27283051F12031C4
:1014800081F1E8946F936E7F6E5F7F4F8F4F9F4F18
:10149000AF4FB1E03ED0B4E03CD0670F781F891F5A
:1014A0009A1FA11D680F791F8A1F911DA11D6A0F28
:1014B000711D811D911DA11D20D009F468943F91DB
:1014C0002AE0269F11243019305D3193DEF6CF01DA
:1014D0000895462F4770405D4193B3E00FD0C9F7A0
:1014E000F6CF462F4F70405D4A3318F0495D31FD0D
:1014F0004052419302D0A9F7EACFB4E0A695979560
:10150000879577956795BA95C9F700976105710535
:1015100008959B01AC010A2E06945795479537957F
:101520002795BA95C9F7620F731F841F951FA01DD9
:1015300008952F923F924F925F926F927F928F9277
:101540009F92AF92BF92CF92DF92EF92FF920F9352
:101550001F93CF93DF93CDB7DEB7CA1BDB0B0FB65C
:10156000F894DEBF0FBECDBF09942A883988488819
:101570005F846E847D848C849B84AA84B984C884AF
:10158000DF80EE80FD800C811B81AA81B981CE0FA6
:10159000D11D0FB6F894DEBF0FBECDBFED0108958B
:0415A000F894FFCFED
:1015A40000006E00000000000000260100000000A2
:1015B4000801160100000000EB0500000000000017
:1015C40000020000000062070000000000010000AB
:1015D4004A4948474645444342410039383736353D
:0615E40034333231300007
:00000001FF
