:100000000C944F000C946C000C946C000C946C00DD
:100010000C946C000C946C000C946C000C946C00B0
:100020000C946C000C946C000C946C000C946C00A0
:100030000C946C000C946C000C9441010C946C00BA
:100040000C946C000C946C000C9490050C946C0057
:100050000C946C000C946C000C946C000C946C0070
:100060000C946C000C946C0053797374656D206F64
:100070006E6C696E652E0D0A000D0A2A2A2A2A2A3C
:100080002A2A2A424F4F54494E4720434F4E544943
:100090004B492A2A2A2A2A2A2A2A2A0D0A00112406
:1000A0001FBECFEFD8E0DEBFCDBF11E0A0E0B1E0D2
:1000B000ECE1F3E102C005900D92AE33B107D9F740
:1000C00022E0AEE3B1E001C01D92A539B207E1F72D
:1000D0000E9465060C948C090C940000CF93DF936A
:1000E000EC0188819981892B21F480E391E00E94C1
:1000F000AC061982188283E0DF91CF91089546E023
:1001000067E680E00E94BB0580E00E9412066FEA6D
:1001100073E080E00C94E905F89416BC83EF87BD8A
:1001200082E084BD94E095BD15BA80936E0078940A
:10013000089520913F013091400180913F019091BD
:10014000400182179307A9F708950F931F93009119
:100150008702109188022091890230918A02609171
:100160008702709188028091890290918A026017BB
:1001700071078207930759F71F910F9108956093B4
:100180008702709388028093890290938A0208956F
:10019000CF93DF93EC010E949900C80FD91F0E94F2
:1001A00099008C1B9D0B97FDFACFDF91CF9108959D
:1001B000009731F0880F991F880F991F0197F1F769
:1001C000089520EA3FE0019708F40895F901319776
:1001D000F1F7F9CFCF92DF92EF92FF92EFB7F89459
:1001E00020913F0130914001280F391F3093400189
:1001F00020933F0120913E01820F911D4091830287
:100200005091840260918502709186029C012F3F7B
:10021000310509F0F8F4A92FBB274A0F5B1F611DB8
:10022000711D409383025093840260938502709302
:10023000860240E04A9F90014B9F300D3A1B1124EB
:10024000820F931F80933E01EFBFFF90EF90DF90EE
:10025000CF9008953A95C0908702D0908802E090A0
:100260008902F0908A02FFEFCF1ADF0AEF0AFF0A35
:10027000C0928702D0928802E0928902F0928A02AC
:10028000C6CF1F920F920FB60F9211242F933F9358
:100290004F935F936F937F938F939F93AF93BF938E
:1002A000EF93FF9380913F019091400101969093CD
:1002B000400180933F0180913E018F5F80933E011A
:1002C0000E94FE04892B11F00E941304FF91EF910C
:1002D000BF91AF919F918F917F916F915F914F915E
:1002E0003F912F910F900FBE0F901F9018951F9365
:1002F000CF93DF93DC011296ED91FC911397309729
:10030000E1F0162FEC01909342018093410182E0CD
:100310008E83CD0104960995082E000C990B029747
:10032000029710F0133839F4BE01CE01DF91CF915E
:100330001F910C94A70181E08E83DF91CF911F91D3
:100340000895FC01268120FD0C9477010895CF9239
:10035000DF92EF92FF920F931F93CF93DF93009161
:10036000430110914401E801C817D90779F020979B
:1003700049F4DF91CF911F910F91FF90EF90DF90A3
:10038000CF9008950990D881C02DEECF209789F3A2
:10039000C0904101D09042018E818823B1F07B0151
:1003A0001E820115110519F5EA81FB81309769F06C
:1003B000CE15DF0551F0D0934201C093410150E0CA
:1003C00040E063E8CE0104960995E0914301F09185
:1003D0004401EC17FD07C1F4888199819093440191
:1003E00080934301D0924201C0924101C2CFC01715
:1003F000D10729F0AE0167E8C8010E94A101F80108
:1004000000811181CECFFC01309761F38081918111
:100410008C179D07C1F78881998191838083E2CFF2
:100420001F93CF93DF9310924A01C0914301D09163
:10043000440111E0209721F4DF91CF911F9108959D
:100440008F81882341F01E831F8250E040E062E8E4
:10045000CE010E9477010990D881C02DEBCF809109
:10046000750191E0980F9093750108956091410195
:10047000709142010C94A7018AE880937501109253
:1004800073011092740110928B0210924401109229
:1004900043011092420110924101089580914A0156
:1004A00081110E94100290917401992309F44EC0A9
:1004B000E09173012E2F30E085E0E89FF0011124D8
:1004C000E55BFE4F60816093490141815281509309
:1004D0004801409347010380F481E02D2F5F3F4F97
:1004E000277033272093730191509093740180916A
:1004F0004301909144013097F9F0613811F481E0A3
:100500008683CF010E94A10121C080914A018111FF
:100510000E941002409147015091480160914901A9
:1005200080914501909146010E94A101E091450111
:10053000F09146018081918190934601809345011D
:100540008091450190914601892BF9F690914A01DD
:1005500080917401890F9927991F089590914A01FC
:1005600080917401890F9927991F08959C018091AA
:1005700074018830D9F0E0917301E80FE77095E0DD
:10058000E99FF0011124E55BFE4F608352834183B4
:10059000348323838F5F8093740190918B0298172B
:1005A00010F480938B0290E080E0089581E090E069
:1005B0000895CF93DF93C0914101D09142010E94F1
:1005C000A101D0934201C0934101DF91CF910895E1
:1005D000AB013091430120914401E32FF22FE81742
:1005E000F907B1F0309781F4009791F0FC01308366
:1005F0002183909344018093430121E02683158257
:10060000148261E80C94D9020190F081E02DE7CFCB
:100610000895009749F0FC0126812150223020F4F2
:1006200021E0278320934A01089521E030E0FC0176
:100630008681811102C030E020E0C9010895CF9386
:10064000DF93C8E0D1E089919991009719F4DF9187
:10065000CF91089570E060E00E94E802F4CFCF935C
:10066000DF93EC0189919991009719F4DF91CF9173
:10067000089570E060E00E94E802F4CFCF93DF932A
:10068000EC0189919991009719F4DF91CF91089528
:100690000E943602F6CFCF93DF93EC0188819981D7
:1006A0008836910579F08A37910509F44FC0892B76
:1006B00009F04FC00E942F0280938C021092F80123
:1006C0001092F70189E792E00E9465058F3F980735
:1006D00031F488E690E09983888381E03DC02091E1
:1006E000F7013091F8018A30910579F02F37310503
:1006F0004CF7A9014F5F5F4F5093F8014093F7010A
:1007000029583E4FF9018083DDCFC90101969093AE
:10071000F8018093F70129583E4FF901108247E70D
:1007200051E060918C0290E080E00E94B60250E0BF
:1007300040E065E880914101909142010E94B6023B
:10074000892B09F0BBCF8AE790E0C5CF653829F641
:10075000B5CF1982188283E0DF91CF9108958D3053
:1007600001F1682F80917601811110C089E792E034
:100770000E944505892B19F481E0809376018EE073
:1007800091E00E94090381E090E008956A30B9F792
:1007900089E792E00E944505892B89F31092760142
:1007A000EECF90E080E0089540E869EF71E089E7DE
:1007B00092E00E943D0570E060E08EE091E00C94D4
:1007C000E8028091800290918102892B29F4109295
:1007D0007F0210927E0208950E949900E0918002AB
:1007E000F09181022081318142815381240F351F94
:1007F000281B390B0480F581E02D309739F4820FE6
:10080000931F90937F0280937E02089540815181CF
:1008100062817381460F571F481B590B42175307BC
:1008200048F79A01E7CF86E191E00C940903EF9233
:10083000FF920F931F93CF93DF938C01FC01808174
:1008400091810097B1F18A35910509F06DC0E09171
:100850008002F0918102673851F1623871F5C091E0
:100860008002D0918102F12CE12C209731F1CE0150
:100870000E943B06892B09F452C0AE0168E88E81C4
:100880009F810E94B602892B09F047C01F821E82F9
:100890008C819D81E114F104D9F1F7019583848362
:1008A0001D821C820E94E103DACFE32FF22F3097E2
:1008B00089F410928102109280028AE590E0F8019A
:1008C0009183808381E0DF91CF911F910F91FF9001
:1008D000EF9008953481258186819781841795074B
:1008E00021F3F0938102E0938002A481B5811097F7
:1008F00021F316968D919C9117978417950731F4E3
:1009000014968D919C9195838483EFCFFD01EDCF5B
:100910009093810280938002C3CF0E9413047E01D2
:100920000C80DD81C02DA1CF1182108283E0CBCF5E
:10093000CF93DF93EC010E9413042E813F819091AD
:10094000800280918102E92FF82F232B81F42091DE
:100950004101309142013F832E839C838D83D0934C
:100960008102C093800208C00480F581E02D309799
:1009700071F3EC17FD07C1F7DF91CF910C94E10300
:10098000CF93DF93EC010E941B06CE01DF91CF9144
:100990000C949804CF93DF93EC010E942706CE01BC
:1009A000DF91CF910C949804CF93DF93EC010E94D8
:1009B0003106CE01DF91CF910C949804FC01208187
:1009C0003181620F731F718360830C94E10321E016
:1009D00030E0FC0186819781892B11F030E020E026
:1009E000C9010895FC012081318182819381820FA8
:1009F000931F0895FC0180819181089581E090E02A
:100A00002091800230918102232B11F490E080E04C
:100A100008958091800290918102892B29F0809124
:100A20007E0290917F02089590E080E00895CF9338
:100A3000DF93EC01E0918002F0918102E817F90761
:100A400081F48C819D8190938102809380020E9429
:100A5000E1031D821C821F821E82DF91CF910895C7
:100A6000FC013097B1F3848195818C179D07C1F704
:100A70008C819D8195838483EACFFC01718360839F
:100A800041504283138214820895FC0183812281A4
:100A900030E090E04481DC01A41BB109AD014223A8
:100AA00053232417350771F020813181820F931F62
:100AB000DC016C9383818F5F92818923838381E042
:100AC00090E0089590E080E00895FC0194814281D7
:100AD000238130E0692F70E0261B370BB0E0242320
:100AE0003B23232B51F0A081B181A60FB71F8C911E
:100AF0009F5F9423948390E008958FEF9FEF089574
:100B0000FC01828190E001960895FC01438184817B
:100B1000481B550B2281822F90E084239523089552
:100B20001F920F920FB60F9211242F933F934F9362
:100B30005F936F937F938F939F93AF93BF93EF9345
:100B4000FF938091C600E0918D02F0918E02309764
:100B500009F00995FF91EF91BF91AF919F918F910E
:100B60007F916F915F914F913F912F910F900FBEA9
:100B70000F901F90189581110DC01092C5006093C1
:100B8000C40088E98093C1004093C20010928E0295
:100B900010928D020895811106C08091C00085FFDA
:100BA000FCCF6093C6000895CF93C82F8A3059F4C4
:100BB0006DE0809182020E94CB056C2F80918202B1
:100BC0000E94CB0502C08D30C1F790E080E0CF914C
:100BD0000895811104C070938E0260938D02089570
:100BE0001F93CF93DF93182FEB018991811104C0DC
:100BF000DF91CF911F9108958A3021F46DE0812F0C
:100C00000E94CB05FE01319760816D3071F3812F19
:100C10000E94CB05EACF9091C00095FFFCCF809356
:100C2000C6000895809382028EE191E09093920233
:100C3000809391020895CF93DF93EC017B836A83C5
:100C40000E94990099838883DF91CF910895FC01D8
:100C50008081918122813381820F931F91838083D0
:100C60000895CF93DF93EC010E94990099838883C4
:100C7000DF91CF910895CF93DF93EC010E9499000B
:100C800028813981821B930B9C012F5F3F4F81E0AC
:100C900090E04A815B814217530710F090E080E0BA
:100CA000DF91CF910895CF93DF93FC01C081D18173
:100CB00082819381C80FD91F0E9499009E01281B31
:100CC000390BC901DF91CF9108950E947F000E94E6
:100CD0008C000E943C020E941F032D980E94D403A6
:100CE0008CE291E00E942F0389E790E09F938F931D
:100CF0000E94870688E690E09F938F930E94870664
:100D00000F900F900F900F900E944E02FDCFB0E019
:100D1000A0E0EDE8F6E00C946309AE01495F5F4F97
:100D2000DA016D917D91AD010FE812E0F801828149
:100D30009381DC0113962C911397286013962C93C2
:100D40000E94D706D8011296ED91FC912381277F4E
:100D50002383E4E00C947F090F931F93CF93DF93D9
:100D6000E0919102F09192022381EC0110E000E009
:100D700021FD08C00FEF1FEF14C00995892B11F05A
:100D80000FEF1FEF89916091910270919202DB0148
:100D90001896ED91FC918111F0CF8AE00995892B8D
:100DA00049F7C801DF91CF911F910F910895ABE0F2
:100DB000B0E0EDEDF6E00C9455097C013B018A01B1
:100DC000FC0117821682838181FFC8C1CE01019682
:100DD0005C01F7019381F30193FD859193FF81916C
:100DE0003F01882309F453C1853239F493FD85917D
:100DF00093FF81913F01853229F4B70190E00E9471
:100E0000C708E7CF912C212C312CFFE1F31538F0E6
:100E10008B3211F190F4803209F1833229F137FCE1
:100E20003CC020ED280F2A3050F536FE20C08AE065
:100E3000989E200D1124922E06C08D3291F08033A1
:100E400071F7689430F8F30193FD859193FF8191D8
:100E50003F018111DACF21C0689431F8689432F8EB
:100E6000F2CF689433F8EFCF689434F8ECCFEAE02F
:100E70002E9E200D1124222E689435F8E4CF8E3258
:100E800029F436FC04C1689436F8DDCF8C3619F4A9
:100E9000689437F8D8CF8836B1F2982F9F7D955453
:100EA0009330E0F08336A1F18337C1F1833509F047
:100EB00063C02801F2E04F0E511CF801C080D180C0
:100EC000692D70E036FC02C06FEF7FEFC6010E9413
:100ED000B1084C01689437F882010AC00C5F1F4FBB
:100EE000FFE3F98388248394912C6501E89437F813
:100EF00033FE2DC0522C8114910471F5552009F454
:100F000068CFB70180E290E00E94C7085A94F6CFFC
:100F1000F801808189830E5F1F4FE4CF2801F2E042
:100F20004F0E511CF801C080D180692D70E036FC55
:100F300002C06FEF7FEFC6010E94BC084C01820126
:100F4000D5CFB70180E290E00E94C7082A94281408
:100F5000190409F0B0F7CECFF60137FC859137FEC2
:100F600081916F01B70190E00E94C70851105A9417
:100F7000F1E08F1A9108BFCF843619F0893609F055
:100F800077C0F80137FE6BC06081718182819381E7
:100F90000C5F1F4FF32DFF763F2E97FF09C09095F2
:100FA0008095709561957F4F8F4F9F4F689437F86C
:100FB0002AE030E0A5010E94F708C82ECA188C2C40
:100FC000432C36FE0CC0E89440F8C91440F434FEBB
:100FD00005C032FC03C0F32DFE7E4F2E892C44FE4B
:100FE00095C0FE01EC0DF11D8081803309F087C0B2
:100FF000242D297E422E842D8870582E43FC95C0C6
:1010000040FE8FC09C2C821418F42C0C922C981843
:1010100044FE91C0B70180E390E00E94C70842FE01
:1010200009C088E790E041FE02C088E590E0B70182
:101030000E94C708C91408F48AC0CA94D12C9FEF33
:10104000C91AD90ACA0CDB1CF60182916F01B701DB
:1010500090E00E94C708AC14BD04B1F74FCF608187
:101060007181072E000C880B990B0E5F1F4F92CFDA
:10107000D32CE894D4F82AE030E0853739F1232DD9
:10108000297FD22E8F3601F148F48835A9F0F70177
:10109000868197812B96E2E10C947109803749F0A3
:1010A0008837A9F7D4FE02C06894D2F820E130E076
:1010B0000DC06894D4F8F6CF34FE03C0822F86604A
:1010C000D82E20E132E002C028E030E0F801D7FE5F
:1010D0000FC060817181828193810C5F1F4FA501D8
:1010E0000E94F708C82ECA183D2CE89437F867CF3D
:1010F0006081718190E080E00E5F1F4FF0CF42FC75
:1011000002C0839478CF8394839475CF842D86789E
:1011100009F471CFF6CFB70180E290E00E94C708D2
:1011200083948214C0F3512C73CF522C581882141C
:1011300008F46ECFF8CF842D867809F47BCF8BE24C
:1011400041FE80E247FC8DE2B70190E071CFB7012C
:1011500080E390E00E94C7089A946CCF8FEF9FEFD6
:1011600099CFFC010590615070400110D8F780952F
:1011700090958E0F9F1F0895FC0161507040019063
:101180000110D8F7809590958E0F9F1F08950F93AB
:101190001F93CF93DF93182F092FEB018B8181FDD4
:1011A00009C01FEF0FEF812F902FDF91CF911F917B
:1011B0000F91089582FF14C02E813F818C819D8103
:1011C000281739073CF4E881F981CF01019699830A
:1011D000888310838E819F8101969F838E83E3CFC6
:1011E000E885F985812F0995892BA1F3DACFFA01DA
:1011F000AA27283051F1203181F1E8946F936E7F56
:101200006E5F7F4F8F4F9F4FAF4FB1E03ED0B4E046
:101210003CD0670F781F891F9A1FA11D680F791F87
:101220008A1F911DA11D6A0F711D811D911DA11D98
:1012300020D009F468943F912AE0269F11243019A8
:10124000305D3193DEF6CF010895462F4770405D43
:101250004193B3E00FD0C9F7F6CF462F4F70405DF2
:101260004A3318F0495D31FD4052419302D0A9F74D
:10127000EACFB4E0A6959795879577956795BA9547
:10128000C9F700976105710508959B01AC010A2E0D
:1012900006945795479537952795BA95C9F7620FE4
:1012A000731F841F951FA01D08952F923F924F9288
:1012B0005F926F927F928F929F92AF92BF92CF92E6
:1012C000DF92EF92FF920F931F93CF93DF93CDB7EF
:1012D000DEB7CA1BDB0B0FB6F894DEBF0FBECDBF67
:1012E00009942A88398848885F846E847D848C8438
:1012F0009B84AA84B984C884DF80EE80FD800C8141
:101300001B81AA81B981CE0FD11D0FB6F894DEBF23
:0C1310000FBECDBFED010895F894FFCF93
:10131C0000006E000000000016010E01000000002D
:10132C004B03000000000000170400000000000048
:10133C00000200000000D4050000000000010000C5
:0E134C0048656C6C6F2C20776F726C6400002B
:00000001FF
