:100000000C944F000C946C000C946C000C946C00DD
:100010000C946C000C946C000C946C000C946C00B0
:100020000C946C000C946C000C946C000C946C00A0
:100030000C946C000C946C000C9497030C946C0062
:100040000C946C000C946C000C94D4060C946C0012
:100050000C946C000C946C000C946C000C946C0070
:100060000C946C000C946C0053797374656D206F64
:100070006E6C696E652E0D0A000D0A2A2A2A2A2A3C
:100080002A2A2A424F4F54494E4720434F4E544943
:100090004B492A2A2A2A2A2A2A2A2A0D0A00112406
:1000A0001FBECFEFD8E0DEBFCDBF11E0A0E0B1E0D2
:1000B000ECE3F5E102C005900D92A838B107D9F73D
:1000C00022E0A8E8B1E001C01D92A83EB207E1F726
:1000D0000E945F070C949C0A0C940000CF93DF935E
:1000E000EC01888199810097E1F0479761F588E8F4
:1000F00091E00E947F02892B21F18BE491E00E9424
:10010000BC0787E00E944E011F928F9386E691E024
:100110009F938F930E9481070F900F900F900F90E5
:1001200006C00E94CF0080E391E00E94BC0760E01F
:1001300075E088E891E00E94580287E190E0998399
:10014000888381E003C01982188283E0DF91CF9118
:10015000089580E0089590E080E0089580E008959B
:10016000FF920F931F93CF93DF93F62E172F042F39
:100170005E9880620E946901CF2DD12F0C0F1D2F38
:10018000111DC017D10739F45E9ADF91CF911F91ED
:100190000F91FF90089589910E946901F2CFCF934A
:1001A000DF9300D000D01F92CDB7DEB7579A569A92
:1001B0005F985E9A0E945E012FEF81EE94E02150DD
:1001C00080409040E1F700C000008FE08D8341E067
:1001D00050E0BE016B5F7F4F90E080E00E94B00076
:1001E00081E08C8341E050E0BE016C5F7F4F82E094
:1001F00090E00E94B00082E08B8341E050E0BE01BD
:100200006D5F7F4F85E090E00E94B00088E08A83B8
:1002100041E050E0BE016E5F7F4F81E190E00E94BF
:10022000B00080E7898341E050E0BE016F5F7F4FFF
:1002300087E090E00E94B0005F9A8FE39FE1019712
:10024000F1F700C000000F900F900F900F900F90EB
:10025000DF91CF910895FF920F931F93CF93DF9378
:10026000F62E172F042F5E980E946901CF2DD12FF3
:100270000C0F1D2F111DC017D10739F45E9ADF91A5
:10028000CF911F910F91FF9008950E946E01899365
:10029000F2CF5E980E946E015E9A0895CF93C82FA8
:1002A0000E9475018C2F8F710E9469010E946E015E
:1002B000C82F0E9477018C2FCF91089584B18C6252
:1002C00084B985B1886285B980E58CBD81E08DBD3A
:1002D00008958EBD0DB407FEFDCF08958FEF8EBD3E
:1002E0000DB407FEFDCF8EB508952A9808952A9A79
:1002F00008958091930190919401892B29F4109293
:1003000092011092910108950E94EF02E0919301F1
:10031000F09194012081318142815381240F351F56
:10032000281B390B0480F581E02D309739F4820FBA
:10033000931F909392018093910108954081518180
:1003400062817381460F571F481B590B4217530791
:1003500048F79A01E7CF88E091E00C945F05EF92AF
:10036000FF920F931F93CF93DF938C01FC01808149
:1003700091810097B1F18A35910509F06DC0E09146
:100380009301F0919401673851F1623871F5C09191
:100390009301D0919401F12CE12C209731F1CE0101
:1003A0000E945706892B09F452C0AE0168E88E817D
:1003B0009F810E940C05892B09F047C01F821E8275
:1003C0008C819D81E114F104D9F1F7019583848337
:1003D0001D821C820E947901DACFE32FF22F309721
:1003E00089F410929401109293018AE590E0F8014B
:1003F0009183808381E0DF91CF911F910F91FF90D6
:10040000EF9008953481258186819781841795071F
:1004100021F3F0939401E0939301A481B5811097A7
:1004200021F316968D919C9117978417950731F4B7
:1004300014968D919C9195838483EFCFFD01EDCF30
:100440009093940180939301C3CF0E94AB017E01EE
:100450000C80DD81C02DA1CF1182108283E0CBCF33
:10046000CF93DF93EC010E94AB012E813F819091ED
:10047000930180919401E92FF82F232B81F420918F
:100480009801309199013F832E839C838D83D09373
:100490009401C093930108C00480F581E02D30974A
:1004A00071F3EC17FD07C1F7DF91CF910C9479013F
:1004B000CF93DF93EC010E943706CE01DF91CF91FD
:1004C0000C943002CF93DF93EC010E944306CE01DF
:1004D000DF91CF910C943002CF93DF93EC010E9417
:1004E0004D06CE01DF91CF910C943002FC012081AA
:1004F0003181620F731F718360830C94790121E055
:1005000030E0FC0186819781892B11F030E020E0FA
:10051000C9010895FC012081318182819381820F7C
:10052000931F0895FC0180819181089581E090E0FE
:100530002091930130919401232B11F490E080E0FD
:1005400008958091930190919401892B29F08091D5
:10055000910190919201089590E080E00895CF93E9
:10056000DF93EC01E0919301F0919401E817F90712
:1005700081F48C819D8190939401809393010E94DA
:1005800079011D821C821F821E82DF91CF91089506
:10059000FC013097B1F3848195818C179D07C1F7D9
:1005A0008C819D8195838483EACF46E067E680E075
:1005B0000E94FF0680E00E94560765E076E080E03A
:1005C0000C942D07F89416BC83EF87BD82E084BDA0
:1005D00094E095BD15BA80936E00789408952091AB
:1005E0009601309197018091960190919701821721
:1005F0009307A9F708950F931F930091DA021091C2
:10060000DB022091DC023091DD026091DA02709110
:10061000DB028091DC029091DD0260177107820796
:10062000930759F71F910F9108956093DA02709321
:10063000DB028093DC029093DD020895CF93DF9379
:10064000EC010E94EF02C80FD91F0E94EF028C1B21
:100650009D0B97FDFACFDF91CF910895009731F070
:10066000880F991F880F991F0197F1F7089520EAC5
:100670003FE0019708F40895F9013197F1F7F9CFB8
:10068000CF92DF92EF92FF92EFB7F894209196010C
:1006900030919701280F391F3093970120939601CD
:1006A00020919501820F911D4091D6025091D70261
:1006B0006091D8027091D9029C012F3F310509F059
:1006C000F8F4A92FBB274A0F5B1F611D711D4093D2
:1006D000D6025093D7026093D8027093D90240E0BB
:1006E0004A9F90014B9F300D3A1B1124820F931F9C
:1006F00080939501EFBFFF90EF90DF90CF9008952A
:100700003A95C090DA02D090DB02E090DC02F090E3
:10071000DD02FFEFCF1ADF0AEF0AFF0AC092DA020A
:10072000D092DB02E092DC02F092DD02C6CF1F9293
:100730000F920FB60F9211242F933F934F935F9315
:100740006F937F938F939F93AF93BF93EF93FF9399
:1007500080919601909197010196909397018093D3
:100760009601809195018F5F809395010E9496027A
:10077000892B11F00E94AB01FF91EF91BF91AF91D6
:100780009F918F917F916F915F914F913F912F91A9
:100790000F900FBE0F901F9018951F93CF93DF936C
:1007A000DC011296ED91FC9113973097E1F0162F32
:1007B000EC01909399018093980182E08E83CD01A2
:1007C00004960995082E000C990B0297029710F0D9
:1007D000133839F4BE01CE01DF91CF911F910C94F3
:1007E000FD0381E08E83DF91CF911F910895FC017D
:1007F000268120FD0C94CD030895CF92DF92EF92D5
:10080000FF920F931F93CF93DF9300919A01109162
:100810009B01E801C817D90779F0209749F4DF91C7
:10082000CF911F910F91FF90EF90DF90CF9008959F
:100830000990D881C02DEECF209789F3C090980100
:10084000D09099018E818823B1F07B011E82011521
:10085000110519F5EA81FB81309769F0CE15DF05A6
:1008600051F0D0939901C093980150E040E063E8C3
:10087000CE0104960995E0919A01F0919B01EC1745
:10088000FD07C1F48881998190939B0180939A011F
:10089000D0929901C0929801C2CFC017D10729F018
:1008A000AE0167E8C8010E94F703F80100811181D9
:1008B000CECFFC01309761F3808191818C179D0729
:1008C000C1F78881998191838083E2CF1F93CF9371
:1008D000DF931092A101C0919A01D0919B0111E088
:1008E000209721F4DF91CF911F9108958F81882364
:1008F00041F01E831F8250E040E062E8CE010E947A
:10090000CD030990D881C02DEBCF8091CC0191E02F
:10091000980F9093CC01089560919801709199017E
:100920000C94FD038AE88093CC011092CA011092C6
:10093000CB011092DE0210929B0110929A0110924C
:1009400099011092980108958091A10181110E944E
:1009500066049091CB01992309F44EC0E091CA013D
:100960002E2F30E085E0E89FF0011124EE55FE4F78
:1009700060816093A0014181528150939F01409317
:100980009E010380F481E02D2F5F3F4F27703327B6
:100990002093CA0191509093CB0180919A0190913C
:1009A0009B013097F9F0613811F481E08683CF0123
:1009B0000E94F70321C08091A10181110E94660469
:1009C00040919E0150919F016091A00180919C01F6
:1009D00090919D010E94F703E0919C01F0919D018F
:1009E0008081918190939D0180939C0180919C01D5
:1009F00090919D01892BF9F69091A1018091CB01F5
:100A0000890F9927991F08959091A1018091CB0199
:100A1000890F9927991F08959C018091CB018830F7
:100A2000D9F0E091CA01E80FE77095E0E99FF00185
:100A30001124EE55FE4F6083528341833483238318
:100A40008F5F8093CB019091DE02981710F4809312
:100A5000DE0290E080E0089581E090E00895CF9379
:100A6000DF93C0919801D09199010E94F703D09330
:100A70009901C0939801DF91CF910895AB01309116
:100A80009A0120919B01E32FF22FE817F907B1F0AB
:100A9000309781F4009791F0FC013083218390938B
:100AA0009B0180939A0121E026831582148261E8DC
:100AB0000C942F050190F081E02DE7CF0895009769
:100AC00049F0FC0126812150223020F421E02783C7
:100AD0002093A101089521E030E0FC01868181117D
:100AE00002C030E020E0C9010895CF93DF93C0E158
:100AF000D1E089919991009719F4DF91CF910895F0
:100B000070E060E00E943E05F4CFCF93DF93EC01EC
:100B100089919991009719F4DF91CF91089570E030
:100B200060E00E943E05F4CFCF93DF93EC01899102
:100B30009991009719F4DF91CF9108950E948C0448
:100B4000F6CFCF93DF93EC018881998188369105A8
:100B500079F08A37910509F44FC0892B09F04FC00D
:100B60000E9485048093DF0210924F0210924E0281
:100B700080ED92E00E94A9068F3F980731F488E645
:100B800090E09983888381E03DC020914E023091AE
:100B90004F028A30910579F02F3731054CF7A901C2
:100BA0004F5F5F4F50934F0240934E0222533E4F90
:100BB000F9018083DDCFC901019690934F028093A4
:100BC0004E0222533E4FF90110824EEC51E06091EB
:100BD000DF0290E080E00E940C0550E040E065E814
:100BE00080919801909199010E940C05892B09F040
:100BF000BBCF8AE790E0C5CF653829F6B5CF19821B
:100C0000188283E0DF91CF9108958D3001F1682F34
:100C10008091CD01811110C080ED92E00E94890683
:100C2000892B19F481E08093CD0186E191E00E9447
:100C30005F0581E090E008956A30B9F780ED92E0B9
:100C40000E948906892B89F31092CD01EECF90E0A6
:100C500080E0089540E860E572E080ED92E00E9457
:100C6000810670E060E086E191E00C943E05CF9350
:100C7000DF93EC017B836A830E94EF029983888370
:100C8000DF91CF910895FC01808191812281338190
:100C9000820F931F918380830895CF93DF93EC019C
:100CA0000E94EF0299838883DF91CF910895CF93BB
:100CB000DF93EC010E94EF0228813981821B930BA4
:100CC0009C012F5F3F4F81E090E04A815B8142179A
:100CD000530710F090E080E0DF91CF910895CF931B
:100CE000DF93FC01C081D18182819381C80FD91F1C
:100CF0000E94EF029E01281B390BC901DF91CF91A1
:100D00000895FC01718360834150428313821482F1
:100D10000895FC018381228130E090E04481DC0170
:100D2000A41BB109AD01422353232417350771F0E9
:100D300020813181820F931FDC016C9383818F5F4F
:100D400092818923838381E090E0089590E080E0A0
:100D50000895FC0194814281238130E0692F70E085
:100D6000261B370BB0E024233B23232B51F0A0811B
:100D7000B181A60FB71F8C919F5F9423948390E05D
:100D800008958FEF9FEF0895FC01828190E0019616
:100D90000895FC0143818481481B550B2281822FD9
:100DA00090E08423952308951F920F920FB60F921F
:100DB00011242F933F934F935F936F937F938F9360
:100DC0009F93AF93BF93EF93FF938091C600E09101
:100DD000E002F091E102309709F00995FF91EF915F
:100DE000BF91AF919F918F917F916F915F914F9143
:100DF0003F912F910F900FBE0F901F90189581116A
:100E00000DC01092C5006093C40088E98093C100B2
:100E10004093C2001092E1021092E0020895811105
:100E200006C08091C00085FFFCCF6093C600089586
:100E3000CF93C82F8A3059F46DE08091D5020E947B
:100E40000F076C2F8091D5020E940F0702C08D30D2
:100E5000C1F790E080E0CF910895811104C07093B4
:100E6000E1026093E00208951F93CF93DF93182F60
:100E7000EB018991811104C0DF91CF911F910895F9
:100E80008A3021F46DE0812F0E940F07FE01319717
:100E900060816D3071F3812F0E940F07EACF90912E
:100EA000C00095FFFCCF8093C60008958093D502C3
:100EB0008EE191E09093E5028093E40208950E9410
:100EC000D5020E94E2020E9492040E9475052D98AC
:100ED0000E942A068CE291E00E94850589E790E055
:100EE0009F938F930E94970788E690E09F938F933C
:100EF0000E9497070F900F900F900F900E94A404EC
:100F0000FDCFB0E0A0E0E7E8F7E00C94750AAE0191
:100F10004B5F5F4FFA0161917191AF018091E402E3
:100F20009091E5020E94E707E2E00C94910AB0E09C
:100F3000A0E0EDE9F7E00C94730AAE01495F5F4F62
:100F4000DA016D917D91AD0102EE12E0F80182812E
:100F50009381DC0113962C911397286013962C93A0
:100F60000E94E707D8011296ED91FC912381277F1B
:100F70002383E4E00C948F0A0F931F93CF93DF93A6
:100F8000E091E402F091E5022381EC0110E000E041
:100F900021FD08C00FEF1FEF14C00995892B11F038
:100FA0000FEF1FEF89916091E4027091E502DB0180
:100FB0001896ED91FC918111F0CF8AE00995892B6B
:100FC00049F7C801DF91CF911F910F910895ABE0D0
:100FD000B0E0EDEEF7E00C94650A7C013B018A017C
:100FE000FC0117821682838181FFC8C1CE01019660
:100FF0005C01F7019381F30193FD859193FF81914A
:101000003F01882309F453C1853239F493FD85915A
:1010100093FF81913F01853229F4B70190E00E944E
:10102000D709E7CF912C212C312CFFE1F31538F0B3
:101030008B3211F190F4803209F1833229F137FCBF
:101040003CC020ED280F2A3050F536FE20C08AE043
:10105000989E200D1124922E06C08D3291F080337F
:1010600071F7689430F8F30193FD859193FF8191B6
:101070003F018111DACF21C0689431F8689432F8C9
:10108000F2CF689433F8EFCF689434F8ECCFEAE00D
:101090002E9E200D1124222E689435F8E4CF8E3236
:1010A00029F436FC04C1689436F8DDCF8C3619F487
:1010B000689437F8D8CF8836B1F2982F9F7D955431
:1010C0009330E0F08336A1F18337C1F1833509F025
:1010D00063C02801F2E04F0E511CF801C080D1809E
:1010E000692D70E036FC02C06FEF7FEFC6010E94F1
:1010F000C1094C01689437F882010AC00C5F1F4F88
:10110000FFE3F98388248394912C6501E89437F8F0
:1011100033FE2DC0522C8114910471F5552009F431
:1011200068CFB70180E290E00E94D7095A94F6CFC9
:10113000F801808189830E5F1F4FE4CF2801F2E020
:101140004F0E511CF801C080D180692D70E036FC33
:1011500002C06FEF7FEFC6010E94CC094C018201F3
:10116000D5CFB70180E290E00E94D7092A942814D5
:10117000190409F0B0F7CECFF60137FC859137FEA0
:1011800081916F01B70190E00E94D70951105A94E4
:10119000F1E08F1A9108BFCF843619F0893609F033
:1011A00077C0F80137FE6BC06081718182819381C5
:1011B0000C5F1F4FF32DFF763F2E97FF09C09095D0
:1011C0008095709561957F4F8F4F9F4F689437F84A
:1011D0002AE030E0A5010E94070AC82ECA188C2C0C
:1011E000432C36FE0CC0E89440F8C91440F434FE99
:1011F00005C032FC03C0F32DFE7E4F2E892C44FE29
:1012000095C0FE01EC0DF11D8081803309F087C08F
:10121000242D297E422E842D8870582E43FC95C0A3
:1012200040FE8FC09C2C821418F42C0C922C981821
:1012300044FE91C0B70180E390E00E94D70942FECE
:1012400009C088E790E041FE02C088E590E0B70160
:101250000E94D709C91408F48AC0CA94D12C9FEF00
:10126000C91AD90ACA0CDB1CF60182916F01B701B9
:1012700090E00E94D709AC14BD04B1F74FCF608154
:101280007181072E000C880B990B0E5F1F4F92CFB8
:10129000D32CE894D4F82AE030E0853739F1232DB7
:1012A000297FD22E8F3601F148F48835A9F0F70155
:1012B000868197812B96E2E10C94810A803749F070
:1012C0008837A9F7D4FE02C06894D2F820E130E054
:1012D0000DC06894D4F8F6CF34FE03C0822F866028
:1012E000D82E20E132E002C028E030E0F801D7FE3D
:1012F0000FC060817181828193810C5F1F4FA501B6
:101300000E94070AC82ECA183D2CE89437F867CF08
:101310006081718190E080E00E5F1F4FF0CF42FC52
:1013200002C0839478CF8394839475CF842D86787C
:1013300009F471CFF6CFB70180E290E00E94D7099F
:1013400083948214C0F3512C73CF522C58188214FA
:1013500008F46ECFF8CF842D867809F47BCF8BE22A
:1013600041FE80E247FC8DE2B70190E071CFB7010A
:1013700080E390E00E94D7099A946CCF8FEF9FEFA3
:1013800099CFFC010590615070400110D8F780950D
:1013900090958E0F9F1F0895FC0161507040019041
:1013A0000110D8F7809590958E0F9F1F08950F9389
:1013B0001F93CF93DF93182F092FEB018B8181FDB2
:1013C00009C01FEF0FEF812F902FDF91CF911F9159
:1013D0000F91089582FF14C02E813F818C819D81E1
:1013E000281739073CF4E881F981CF0101969983E8
:1013F000888310838E819F8101969F838E83E3CFA4
:10140000E885F985812F0995892BA1F3DACFFA01B7
:10141000AA27283051F1203181F1E8946F936E7F33
:101420006E5F7F4F8F4F9F4FAF4FB1E03ED0B4E024
:101430003CD0670F781F891F9A1FA11D680F791F65
:101440008A1F911DA11D6A0F711D811D911DA11D76
:1014500020D009F468943F912AE0269F1124301986
:10146000305D3193DEF6CF010895462F4770405D21
:101470004193B3E00FD0C9F7F6CF462F4F70405DD0
:101480004A3318F0495D31FD4052419302D0A9F72B
:10149000EACFB4E0A6959795879577956795BA9525
:1014A000C9F700976105710508959B01AC010A2EEB
:1014B00006945795479537952795BA95C9F7620FC2
:1014C000731F841F951FA01D08952F923F924F9266
:1014D0005F926F927F928F929F92AF92BF92CF92C4
:1014E000DF92EF92FF920F931F93CF93DF93CDB7CD
:1014F000DEB7CA1BDB0B0FB6F894DEBF0FBECDBF45
:1015000009942A88398848885F846E847D848C8415
:101510009B84AA84B984C884DF80EE80FD800C811E
:101520001B81AA81B981CE0FD11D0FB6F894DEBF01
:0C1530000FBECDBFED010895F894FFCF71
:10153C0000006E00000000000000AF010000000081
:10154C000801160100000000A105000000000000C9
:10155C00000200000000180700000000000100005D
:10156C004E5246323420546573742050726F63654A
:10157C0073732073746172746564004E5246323416
:10158C0020546573742050726F6365737320727589
:10159C006E6E696E67004E5246205241572053546E
:1015AC0041545553205245474953544552203D20F0
:0815BC003078253032580A0096
:00000001FF
