:100000000C944F000C946C000C946C000C946C00DD
:100010000C946C000C946C000C946C000C946C00B0
:100020000C946C000C946C000C946C000C946C00A0
:100030000C946C000C946C000C94A4050C946C0053
:100040000C946C000C946C000C94E1080C946C0003
:100050000C946C000C946C000C946C000C946C0070
:100060000C946C000C946C0053797374656D206F64
:100070006E6C696E652E0D0A000D0A2A2A2A2A2A3C
:100080002A2A2A424F4F54494E4720434F4E544943
:100090004B492A2A2A2A2A2A2A2A2A0D0A00112406
:1000A0001FBECFEFD8E0DEBFCDBF12E0A0E0B1E0D1
:1000B000E6E5F9E102C005900D92AE31B107D9F73E
:1000C00023E0AEE1B2E001C01D92AE37B207E1F726
:1000D0000E946C090C94A90C0C940000CF93DF9340
:1000E000EC01888199810097C1F04D97B9F58EE1B7
:1000F00092E00E948C04892B79F18FE691E00E94B6
:10010000C90987E00E9416021F928F938AE891E046
:100110009F938F930E948E0911C00E941D0280E060
:100120000E9416021F928F9386E391E09F938F9314
:100130000E948E0984E591E00E94C9090F900F90FA
:100140000F900F9060E075E08EE192E00E946504F0
:100150008DE190E09983888381E003C01982188241
:1001600083E0DF91CF910895FF920F931F93CF9378
:10017000DF93F82E192F062F2A9880EA0E946A032F
:10018000CF2DD12F0C0F1D2F111DC017D10739F402
:100190002A9ADF91CF911F910F91FF900895899135
:1001A0000E946A03F2CF80E008957F928F929F921F
:1001B000AF92BF92CF92DF92EF92FF920F931F9375
:1001C000CF93DF93782E8B01A42EB12C1F924F93E7
:1001D0001F928F938CEA91E09F938F930E948E09D8
:1001E00078010F900F900F900F900F900F90480193
:1001F000D0E0C0E086ECC82E81E0D82ECA15DB0521
:1002000001F52A988AED91E00E94C909872D806244
:100210000E946A03C00FD11FEC16FD0629F52A9A29
:1002200082EE91E0DF91CF911F910F91FF90EF90BF
:10023000DF90CF90BF90AF909F908F907F900C9465
:10024000C909F40181914F011F928F93DF93CF93DE
:10025000DF92CF920E948E0921960F900F900F90FF
:100260000F900F900F90CACFF70181917F010E94EC
:100270006A03D2CF0F931F93CF938C01C62F6630A2
:1002800008F0C5E04C2FB80180E10E94D5004C2F4A
:10029000B8018AE0CF911F910F910C94D500823064
:1002A00048F4463038F4811103C08AE00C94D5003C
:1002B0008BE0FCCF0895FF920F931F93CF93DF93B2
:1002C00000D000D000D01F92CDB7DEB78C01F62E43
:1002D0008AE08F8341E0BE01695F7F4F80E00E942A
:1002E000D5008FE39FE10197F1F700C0000085E0A2
:1002F000E0E3F1E0DE01119601900D928A95E1F7BD
:1003000045E0BE016F5F7F4F80E10E94D50045E070
:10031000BE016F5F7F4F8AE00E94D5006F2DC8013C
:100320000E94B400299A90E59A95F1F729988FE1F7
:100330009EE40197F1F700C0000080E78E8341E062
:10034000BE016A5F7F4F87E00E94D50081E027965B
:100350000FB6F894DEBF0FBECDBFDF91CF911F91D6
:100360000F91FF900895FF920F931F93CF93DF9308
:10037000F62E172F042F2A980E946A03CF2DD12F13
:100380000C0F1D2F111DC017D10739F42A9ADF91C8
:10039000CF911F910F91FF9008950E945003899370
:1003A000F2CF2A988FEF0E946A030E9450032A9A84
:1003B0000895CF92DF92EF92FF920F931F93CF9306
:1003C000DF931F92CDB7DEB7D82EF92EE62E0E940E
:1003D000D10186FF28C02A9881E60E946A030D2D6C
:1003E0001F2DF12C6801CE0CDF1C0C151D05A9F486
:1003F0002A9A80E4898341E0BE016F5F7F4F87E0E6
:100400000E94D500C7010F90DF91CF911F910F91EE
:10041000FF90EF90DF90CF9008950E945003F80175
:1004200081938F01E2CF80E090E0EDCF2A980E9487
:100430006A030E9450032A9A0895CF93DF9300D055
:1004400000D01F92CDB7DEB7219A229A29982A9A16
:100450000E9443032FEF81EE94E0215080409040B2
:10046000E1F700C000008FE08D8341E0BE016B5FCB
:100470007F4F80E00E94D5008FE19EE40197F1F765
:1004800000C0000080E00E9416021F928F9386E356
:1004900091E09F938F930E948E0981E08C8341E0CD
:1004A000BE016C5F7F4F82E00E94D50082E08B83AB
:1004B00041E0BE016D5F7F4F85E00E94D50088E07E
:1004C0008A8341E0BE016E5F7F4F81E10E94D500CB
:1004D00080E7898341E0BE016F5F7F4F87E00E9424
:1004E000D500299A8FE39FE10197F1F700C0000042
:1004F0000F900F900F900F900F900F900F900F9004
:100500000F90DF91CF910895CF93DF931F92CDB7D6
:10051000DEB7299880E00E9416028D7F898341E032
:10052000BE016F5F7F4F80E00E94D5008FE39FE1A7
:100530000197F1F700C000000F90DF91CF9108956F
:10054000CF93DF931F92CDB7DEB7299880E00E944A
:1005500016028260898341E0BE016F5F7F4F80E0B9
:100560000E94D5008FE39FE10197F1F700C00000E2
:100570000F90DF91CF910895CF93DF931F92CDB766
:10058000DEB7299880E00E9416028E7F8260898300
:1005900041E0BE016F5F7F4F80E00E94D5008FE396
:1005A0009FE10197F1F700C000000F90DF91CF911C
:1005B0000895CF93DF931F92CDB7DEB780E00E94FE
:1005C00016028360898341E0BE016F5F7F4F80E048
:1005D0000E94D500299A0F90DF91CF9108950E9433
:1005E0001D020C94D902DF92EF92FF920F931F939A
:1005F000CF93DF931F92CDB7DEB7D82EF92EE62E1C
:100600002A9880EA0E946A030D2D1F2DE00EF12E1C
:10061000F11C0E151F0579F52A9A299AF0E5FA952D
:10062000F1F7299804E687E00E941602EFE9FFE05F
:100630003197F1F700C00000182F107285FD05C03A
:1006400084FD03C01FEF100FE1F480E7898341E0D0
:10065000BE016F5F7F4F87E00E94D50081E01111DE
:1006600001C080E00F90DF91CF911F910F91FF901B
:10067000EF90DF900895F80181918F010E946A0345
:10068000C8CF012FD0CF84B18C6284B985B1886284
:1006900085B980E58CBD81E08DBD08952A980895C7
:1006A000CF930E944E038FEF8EBD0DB407FEFDCF9A
:1006B000CEB51F92CF938BEE91E09F938F930E94C4
:1006C0008E090F900F900F900F908C2FCF9108955F
:1006D0002A9A0895CF93C82F0E944E03CEBD0DB421
:1006E00007FEFDCF8EB51F928F931F92CF938DEF94
:1006F00091E09F938F930E948E090F900F900F901F
:100700000F900F900F90CF910C9468038091290265
:1007100090912A02892B29F4109228021092270224
:1007200008950E94FC04E0912902F0912A022081A0
:10073000318142815381240F351F281B390B0480DE
:10074000F581E02D309739F4820F931F90932802A2
:100750008093270208954081518162817381460F01
:10076000571F481B590B4217530748F79A01E7CF09
:1007700088E091E00C946C07EF92FF920F931F9327
:10078000CF93DF938C01FC01808191810097B1F1BF
:100790008A35910509F06DC0E0912902F0912A0295
:1007A000673851F1623871F5C0912902D0912A025F
:1007B000F12CE12C209731F1CE010E946408892BA5
:1007C00009F452C0AE0168E88E819F810E9419072A
:1007D000892B09F047C01F821E828C819D81E11404
:1007E000F104D9F1F701958384831D821C820E9454
:1007F0008603DACFE32FF22F309789F410922A0282
:10080000109229028AE590E0F8019183808381E0CB
:10081000DF91CF911F910F91FF90EF900895348158
:100820002581868197818417950721F3F0932A0209
:10083000E0932902A481B581109721F316968D913A
:100840009C9117978417950731F414968D919C917C
:1008500095838483EFCFFD01EDCF90932A0280939F
:100860002902C3CF0E94B8037E010C80DD81C02D18
:10087000A1CF1182108283E0CBCFCF93DF93EC0125
:100880000E94B8032E813F819091290280912A0213
:10089000E92FF82F232B81F420912E0230912F0283
:1008A0003F832E839C838D83D0932A02C093290299
:1008B00008C00480F581E02D309771F3EC17FD0737
:1008C000C1F7DF91CF910C948603CF93DF93EC01B6
:1008D0000E944408CE01DF91CF910C943D04CF9348
:1008E000DF93EC010E945008CE01DF91CF910C9470
:1008F0003D04CF93DF93EC010E945A08CE01DF91B3
:10090000CF910C943D04FC0120813181620F731F53
:10091000718360830C94860321E030E0FC018681C2
:100920009781892B11F030E020E0C9010895FC0186
:100930002081318182819381820F931F0895FC0170
:1009400080819181089581E090E020912902309189
:100950002A02232B11F490E080E00895809129026F
:1009600090912A02892B29F08091270290912802E8
:10097000089590E080E00895CF93DF93EC01E0913B
:100980002902F0912A02E817F90781F48C819D81F0
:1009900090932A02809329020E9486031D821C8262
:1009A0001F821E82DF91CF910895FC013097B1F331
:1009B000848195818C179D07C1F78C819D819583DA
:1009C0008483EACF46E067E680E00E940C0980E07D
:1009D0000E94630962E178E080E00C943A09F8949F
:1009E00016BC83EF87BD82E084BD94E095BD15BA47
:1009F00080936E007894089520912C0230912D02FE
:100A000080912C0290912D0282179307A9F70895E7
:100A10000F931F9300917003109171032091720343
:100A20003091730360917003709171038091720330
:100A300090917303601771078207930759F71F910D
:100A40000F91089560937003709371038093720304
:100A5000909373030895CF93DF93EC010E94FC04FD
:100A6000C80FD91F0E94FC048C1B9D0B97FDFACF69
:100A7000DF91CF910895009731F0880F991F880F6B
:100A8000991F0197F1F7089520EA3FE0019708F4D4
:100A90000895F9013197F1F7F9CFCF92DF92EF92F4
:100AA000FF92EFB7F89420912C0230912D02280F7D
:100AB000391F30932D0220932C0220912B02820F9C
:100AC000911D40916C0350916D0360916E03709184
:100AD0006F039C012F3F310509F0F8F4A92FBB27C4
:100AE0004A0F5B1F611D711D40936C0350936D0392
:100AF00060936E0370936F0340E04A9F90014B9F99
:100B0000300D3A1B1124820F931F80932B02EFBFED
:100B1000FF90EF90DF90CF9008953A95C0907003CA
:100B2000D0907103E0907203F0907303FFEFCF1A3F
:100B3000DF0AEF0AFF0AC0927003D0927103E092BD
:100B40007203F0927303C6CF1F920F920FB60F92EB
:100B500011242F933F934F935F936F937F938F93C2
:100B60009F93AF93BF93EF93FF9380912C0290914B
:100B70002D02019690932D0280932C0280912B02DE
:100B80008F5F80932B020E94A304892B11F00E9497
:100B9000B803FF91EF91BF91AF919F918F917F919A
:100BA0006F915F914F913F912F910F900FBE0F90DA
:100BB0001F9018951F93CF93DF93DC011296ED9150
:100BC000FC9113973097E1F0162FEC0190932F02D0
:100BD00080932E0282E08E83CD0104960995082E23
:100BE000000C990B0297029710F0133839F4BE01EC
:100BF000CE01DF91CF911F910C940A0681E08E8384
:100C0000DF91CF911F910895FC01268120FD0C9466
:100C1000DA050895CF92DF92EF92FF920F931F9320
:100C2000CF93DF930091300210913102E801C81791
:100C3000D90779F0209749F4DF91CF911F910F9157
:100C4000FF90EF90DF90CF9008950990D881C02D4C
:100C5000EECF209789F3C0902E02D0902F028E8184
:100C60008823B1F07B011E820115110519F5EA8177
:100C7000FB81309769F0CE15DF0551F0D0932F023C
:100C8000C0932E0250E040E063E8CE01049609953F
:100C9000E0913002F0913102EC17FD07C1F4888138
:100CA00099819093310280933002D0922F02C092AA
:100CB0002E02C2CFC017D10729F0AE0167E8C801E4
:100CC0000E940406F80100811181CECFFC0130970B
:100CD00061F3808191818C179D07C1F7888199818B
:100CE00091838083E2CF1F93CF93DF9310923702DB
:100CF000C0913002D091310211E0209721F4DF91B0
:100D0000CF911F9108958F81882341F01E831F8208
:100D100050E040E062E8CE010E94DA050990D881F7
:100D2000C02DEBCF8091620291E0980F9093620208
:100D3000089560912E0270912F020C940A068AE8A1
:100D4000809362021092600210926102109274030A
:100D5000109231021092300210922F0210922E0245
:100D600008958091370281110E947306909161026B
:100D7000992309F44EC0E09160022E2F30E085E007
:100D8000E89FF0011124E85CFD4F6081609336021A
:100D90004181528150933502409334020380F481A3
:100DA000E02D2F5F3F4F2770332720936002915033
:100DB0009093610280913002909131023097F9F066
:100DC000613811F481E08683CF010E94040621C0BE
:100DD0008091370281110E94730640913402509134
:100DE00035026091360280913202909133020E9466
:100DF0000406E0913202F091330280819181909358
:100E00003302809332028091320290913302892B17
:100E1000F9F69091370280916102890F9927991F05
:100E200008959091370280916102890F9927991F47
:100E300008959C01809161028830D9F0E0916002B0
:100E4000E80FE77095E0E99FF0011124E85CFD4FA1
:100E5000608352834183348323838F5F8093610255
:100E600090917403981710F48093740390E080E0DD
:100E7000089581E090E00895CF93DF93C0912E0212
:100E8000D0912F020E940406D0932F02C0932E020D
:100E9000DF91CF910895AB01309130022091310262
:100EA000E32FF22FE817F907B1F0309781F400979C
:100EB00091F0FC01308321839093310280933002C2
:100EC00021E026831582148261E80C943C0701908E
:100ED000F081E02DE7CF0895009749F0FC012681CD
:100EE0002150223020F421E02783209337020895F7
:100EF00021E030E0FC018681811102C030E020E079
:100F0000C9010895CF93DF93C0E1D1E08991999110
:100F1000009719F4DF91CF91089570E060E00E948E
:100F20004B07F4CFCF93DF93EC0189919991009710
:100F300019F4DF91CF91089570E060E00E944B07B3
:100F4000F4CFCF93DF93EC0189919991009719F435
:100F5000DF91CF9108950E949906F6CFCF93DF934A
:100F6000EC01888199818836910579F08A3791055D
:100F700009F44FC0892B09F04FC00E94920680935C
:100F800075031092E5021092E40286E693E00E9457
:100F9000B6088F3F980731F488E690E099838883FC
:100FA00081E03DC02091E4023091E5028A30910554
:100FB00079F02F3731054CF7A9014F5F5F4F509300
:100FC000E5024093E4022C593D4FF9018083DDCFC7
:100FD000C90101969093E5028093E4022C593D4F9C
:100FE000F901108244E652E06091750390E080E0E0
:100FF0000E94190750E040E065E880912E02909130
:101000002F020E941907892B09F0BBCF8AE790E0D5
:10101000C5CF653829F6B5CF1982188283E0DF91F4
:10102000CF9108958D3001F1682F80916302811175
:1010300010C086E693E00E949608892B19F481E09F
:101040008093630286E191E00E946C0781E090E06A
:1010500008956A30B9F786E693E00E949608892BD6
:1010600089F310926302EECF90E080E0089540E8AB
:1010700066EE72E086E693E00E948E0870E060E023
:1010800086E191E00C944B07CF93DF93EC017B83D7
:101090006A830E94FC0499838883DF91CF9108952D
:1010A000FC018081918122813381820F931F918382
:1010B00080830895CF93DF93EC010E94FC04998311
:1010C0008883DF91CF910895CF93DF93EC010E9445
:1010D000FC0428813981821B930B9C012F5F3F4FB9
:1010E00081E090E04A815B814217530710F090E065
:1010F00080E0DF91CF910895CF93DF93FC01C08111
:10110000D18182819381C80FD91F0E94FC049E0166
:10111000281B390BC901DF91CF910895FC01718320
:10112000608341504283138214820895FC018381BD
:10113000228130E090E04481DC01A41BB109AD01C3
:10114000422353232417350771F020813181820F08
:10115000931FDC016C9383818F5F9281892383834A
:1011600081E090E0089590E080E00895FC01948192
:101170004281238130E0692F70E0261B370BB0E0FD
:1011800024233B23232B51F0A081B181A60FB71F4D
:101190008C919F5F9423948390E008958FEF9FEF4D
:1011A0000895FC01828190E001960895FC0143813D
:1011B0008481481B550B2281822F90E08423952344
:1011C00008951F920F920FB60F9211242F933F9301
:1011D0004F935F936F937F938F939F93AF93BF933F
:1011E000EF93FF938091C600E0917603F09177032F
:1011F000309709F00995FF91EF91BF91AF919F91C1
:101200008F917F916F915F914F913F912F910F90AF
:101210000FBE0F901F90189581110DC01092C50040
:101220006093C40088E98093C1004093C20010928B
:101230007703109276030895811106C08091C00053
:1012400085FFFCCF6093C6000895CF93C82F8A30E6
:1012500059F46DE080916B030E941C096C2F809102
:101260006B030E941C0902C08D30C1F790E080E042
:10127000CF910895811104C0709377036093760332
:1012800008951F93CF93DF93182FEB01899181115C
:1012900004C0DF91CF911F9108958A3021F46DE051
:1012A000812F0E941C09FE01319760816D3071F31E
:1012B000812F0E941C09EACF9091C00095FFFCCFBE
:1012C0008093C600089580936B038EE191E0909324
:1012D0007B0380937A0308950E94E2040E94EF0446
:1012E0000E949F060E9482072D980E9437088CE278
:1012F00091E00E94920789E790E09F938F930E946C
:10130000A40988E690E09F938F930E94A4090F9010
:101310000F900F900F900E94B106FDCFB0E0A0E0BB
:10132000E4E9F9E00C94820CAE014B5F5F4FFA01E7
:1013300061917191AF0180917A0390917B030E943A
:10134000F409E2E00C949E0CB0E0A0E0EAEAF9E0D7
:101350000C94800CAE01495F5F4FDA016D917D9175
:10136000AD0108E713E0F80182819381DC01139657
:101370002C911397286013962C930E94F409D8019E
:101380001296ED91FC912381277F2383E4E00C9456
:101390009C0C0F931F93CF93DF93E0917A03F0910E
:1013A0007B032381EC0110E000E021FD08C00FEF7A
:1013B0001FEF14C00995892B11F00FEF1FEF8991D2
:1013C00060917A0370917B03DB011896ED91FC919B
:1013D0008111F0CF8AE00995892B49F7C801DF9187
:1013E000CF911F910F910895ABE0B0E0EAEFF9E0E3
:1013F0000C94720C7C013B018A01FC01178216825D
:10140000838181FFC8C1CE0101965C01F701938100
:10141000F30193FD859193FF81913F01882309F4A6
:1014200053C1853239F493FD859193FF81913F013A
:10143000853229F4B70190E00E94E40BE7CF912CAC
:10144000212C312CFFE1F31538F08B3211F190F49F
:10145000803209F1833229F137FC3CC020ED280F9E
:101460002A3050F536FE20C08AE0989E200D1124C7
:10147000922E06C08D3291F0803371F7689430F867
:10148000F30193FD859193FF81913F018111DACFA3
:1014900021C0689431F8689432F8F2CF689433F838
:1014A000EFCF689434F8ECCFEAE02E9E200D1124A3
:1014B000222E689435F8E4CF8E3229F436FC04C12C
:1014C000689436F8DDCF8C3619F4689437F8D8CFA5
:1014D0008836B1F2982F9F7D95549330E0F0833693
:1014E000A1F18337C1F1833509F063C02801F2E02F
:1014F0004F0E511CF801C080D180692D70E036FC80
:1015000002C06FEF7FEFC6010E94CE0B4C016894C2
:1015100037F882010AC00C5F1F4FFFE3F98388246C
:101520008394912C6501E89437F833FE2DC0522C3A
:101530008114910471F5552009F468CFB70180E258
:1015400090E00E94E40B5A94F6CFF80180818983E1
:101550000E5F1F4FE4CF2801F2E04F0E511CF8013F
:10156000C080D180692D70E036FC02C06FEF7FEF44
:10157000C6010E94D90B4C018201D5CFB70180E290
:1015800090E00E94E40B2A942814190409F0B0F7A3
:10159000CECFF60137FC859137FE81916F01B701FF
:1015A00090E00E94E40B51105A94F1E08F1A9108D8
:1015B000BFCF843619F0893609F077C0F80137FEBD
:1015C0006BC060817181828193810C5F1F4FF32D0D
:1015D000FF763F2E97FF09C0909580957095619595
:1015E0007F4F8F4F9F4F689437F82AE030E0A50176
:1015F0000E94140CC82ECA188C2C432C36FE0CC02A
:10160000E89440F8C91440F434FE05C032FC03C02D
:10161000F32DFE7E4F2E892C44FE95C0FE01EC0D6D
:10162000F11D8081803309F087C0242D297E422E50
:10163000842D8870582E43FC95C040FE8FC09C2C92
:10164000821418F42C0C922C981844FE91C0B70107
:1016500080E390E00E94E40B42FE09C088E790E03E
:1016600041FE02C088E590E0B7010E94E40BC91476
:1016700008F48AC0CA94D12C9FEFC91AD90ACA0C9F
:10168000DB1CF60182916F01B70190E00E94E40B30
:10169000AC14BD04B1F74FCF60817181072E000CEF
:1016A000880B990B0E5F1F4F92CFD32CE894D4F880
:1016B0002AE030E0853739F1232D297FD22E8F366D
:1016C00001F148F48835A9F0F701868197812B96BE
:1016D000E2E10C948E0C803749F08837A9F7D4FEEC
:1016E00002C06894D2F820E130E00DC06894D4F8CC
:1016F000F6CF34FE03C0822F8660D82E20E132E080
:1017000002C028E030E0F801D7FE0FC0608171818F
:10171000828193810C5F1F4FA5010E94140CC82E7B
:10172000CA183D2CE89437F867CF6081718190E04A
:1017300080E00E5F1F4FF0CF42FC02C0839478CF51
:101740008394839475CF842D867809F471CFF6CF76
:10175000B70180E290E00E94E40B83948214C0F30E
:10176000512C73CF522C5818821408F46ECFF8CF36
:10177000842D867809F47BCF8BE241FE80E247FC22
:101780008DE2B70190E071CFB70180E390E00E9455
:10179000E40B9A946CCF8FEF9FEF99CFFC010590EB
:1017A000615070400110D8F7809590958E0F9F1F63
:1017B0000895FC016150704001900110D8F78095A8
:1017C00090958E0F9F1F08950F931F93CF93DF93D4
:1017D000182F092FEB018B8181FD09C01FEF0FEF3F
:1017E000812F902FDF91CF911F910F91089582FF4C
:1017F00014C02E813F818C819D81281739073CF4CC
:10180000E881F981CF0101969983888310838E81C5
:101810009F8101969F838E83E3CFE885F985812F91
:101820000995892BA1F3DACFFA01AA27283051F1C3
:10183000203181F1E8946F936E7F6E5F7F4F8F4F01
:101840009F4FAF4FB1E03ED0B4E03CD0670F781F60
:10185000891F9A1FA11D680F791F8A1F911DA11D45
:101860006A0F711D811D911DA11D20D009F468947E
:101870003F912AE0269F11243019305D3193DEF626
:10188000CF010895462F4770405D4193B3E00FD0DC
:10189000C9F7F6CF462F4F70405D4A3318F0495DC7
:1018A00031FD4052419302D0A9F7EACFB4E0A695AA
:1018B0009795879577956795BA95C9F700976105CC
:1018C000710508959B01AC010A2E06945795479522
:1018D00037952795BA95C9F7620F731F841F951F17
:1018E000A01D08952F923F924F925F926F927F9228
:1018F0008F929F92AF92BF92CF92DF92EF92FF9220
:101900000F931F93CF93DF93CDB7DEB7CA1BDB0BCB
:101910000FB6F894DEBF0FBECDBF09942A88398870
:1019200048885F846E847D848C849B84AA84B98477
:10193000C884DF80EE80FD800C811B81AA81B98183
:10194000CE0FD11D0FB6F894DEBF0FBECDBFED0197
:061950000895F894FFCF9A
:1019560000006E00000000000000BC030000000054
:101966000801160100000000AE070000000000009C
:101976000002000000002509000000000001000030
:10198600314E6F6465004E524620434F4E464947DE
:10199600205245474953544552203D203078253042
:1019A60032580A004E524632342054657374205021
:1019B600726F636573732073746172746564004E2D
:1019C6005246323420546573742050726F636573C7
:1019D600732072756E6E696E67004E5246205241D4
:1019E6005720535441545553205245474953544563
:1019F60052203D203078253032580A00575249543B
:101A0600453A207265673D307825303258206C653E
:101A16006E3D25640A00202076616C5B25645D209E
:101A26003D203078253032580A0043534E204C4F23
:101A3600570043534E2048494748005350492052C7
:101A46006561643A203078253032580A005350498F
:101A56002057726974653A203078253032582C2028
:0E1A6600526561643A203078253032580A000B
:00000001FF
